:1005F200C0F9A4B0999282F88090BFFF808284866D
:10060200888A8C81838587898B8D505923010405C3
:0106120022C5
:100457000727000000000000001432000000000021
:100467000000000000000000000000000000000184
:100477002200012301012600012400C101C100015E
:0204870025004E
:1005D1001204BB1206A812000E12048A1203A98E7D
:1005E100308F3112058A12022F12063312001E803B
:0105F100EB1E
:1004BB00E5A0541F4480F5A07580FFE5A0541F44B0
:1004CB00A0F5A0E4F580E5A0541F44C0F5A075800D
:0D04DB00FFE5A0541F44E0F5A07580FF224E
:10063300E52614600E14600F1460102403700F7508
:0F0643002301227523052275231E2275233C22D5
:10061300E5A0541F44C0F5A0A8077401088002C3D5
:1006230033D8FCF580E5A0541F44E0F5A08D80226B
:0D04E8009005FC7F05E493FD1206137F01D3
:1004F5007E00D3EF9400EE940040147D2A7C03ED3A
:0F0505001D70011CED4C70F7EF1F70E61E80E3B8
:0105140022C4
:10001E00E52414602B1470030200F6240260030220
:10002E0000FB1204E8E52375F00A849005F293FDB7
:10003E007F061204F0E52375F00A84E5F00200D87D
:10004E00D28C1203E4D28E120515208E35E5A05403
:10005E001F4480F5A04380FEC2807F0512041EE57A
:10006E00A0541F4480F5A04380FED2807F05120469
:10007E001E30B10320B0D37F051204F530B103203A
:10008E00B0C8E529C4540F9005F293FDE4FF1206A3
:10009E00130F1204F5E529540F93FD7F0112061379
:1000AE001204F5E528C4540F93FD7F031204F0E506
:1000BE0028540F93FD7F041204F0E527C4540F93C8
:1000CE00FD7F061204F0E527540F93FD7F071204FF
:1000DE00F0E5A0541F44C0F5A07580FFE5A0541FA5
:0E00EE0044E0F5A07580FF22AF251200FC2231
:10041E007508008F09D3E5099400E508940040287B
:10042E00750A00750B0AE4FF1200FCE50B150B7044
:10043E0002150AD3E50B9400E50A940050E8E5098D
:08044E00150970D1150880CDDD
:010456002283
:10022F0020B321E524701D7F051204F520B37B0553
:10023F0026D3E5269403748094804003E4F52620AA
:10024F00B36880FB20B20C7F051204F520B25B75FA
:10025F0024012220B1287F051204F520B14C75240A
:10026F0002E5A0541F4480F5A00525D3E525940988
:10027F00748094804003E4F52520B12E80FB20B0DC
:01028F002945
:100290007F051204F520B021E4F524F522F508C30A
:1002A000E508940A74809480500FE50825E0243214
:0902B000F8E4F608F6050880E602
:0102B9002222
:10048A00E4FD7F8E120685E4F508C3E50894077437
:10049A008094805015E5089005FE93FFE5089006C4
:1004AA000C93FD120685050880E07D807F8E02068A
:0104BA0085BC
:10058A00E4F508C3E5089407748094805015E508DB
:10059A0090060593FF12036C74272508F8A6070531
:0305AA000880E0E6
:0105AD00222B
:0E06A800438901758CD8758AF0D2A9D2AF2291
:03000B0002066E7C
:10066E00C0E0758CD8758AF00521E52164327004DE
:07067E00F521B201D0E032CA
:1003E400300118E5A0541F44C0F5A0758024E5A091
:1003F400541F44E0F5A07580BF801920011BE5A0BF
:10040400541F44C0F5A0758024E5A0541F44E0F5B2
:0A041400A07580FF7F011204F5229D
:1003A9001205637FCC12053C7F4412053C1205639C
:1003B9007FCC12053C7FBE12053C7F011204F51269
:1003C90005AE8F081205AEEFFEE508FFEEC4F8543E
:0A03D900F0C868FEEFC4540F48FF9F
:0103E30022F7
:0D000E00758DD8758BF0C28ED2ABD2AF22AB
:03001B000202BA24
:1002BA00C0E0C0D0052FE52F7002052EE52324FBF0
:1002CA00601C24E7602424E2602C243B703AE52F6A
:1002DA006464452E7032F52EF52FD200802AE52F60
:1002EA00B4F425E52EB401208016E52FB4B819E53B
:1002FA002EB40B14800AE52FB4700DE52EB417083E
:0D030A00752E00752F00D200D0D0D0E0324B
:100515003000131203A9E52225E02432F8A60608C7
:10052500A6070522C200D3E5229409748094804071
:0705350005C28EE4F522224D
:1000FC00AB079005FCE493FDE4FF1206130F12040A
:10010C00F5EB75F00A849005F293FD7F011206134E
:10011C001204F5EB75F00A84E5F093FD7F021206EC
:10012C00131F1204F59005FD7F031204EDE493FDFB
:10013C007F041204F01204E8EB25E02432F8E6FE0A
:10014C0008E6FF7C007D0A12031774F22FF5827407
:10015C00053EF583E493FD7F061204F0EB25E024C5
:10016C0032F8E6FE08E6FF7C007D0A12031774F2F3
:10017C002DF58274053CF583E493FD7F071204F0A2
:10018C00E5A0541F44C0F5A07580FFE5A0541F44A2
:07019C00E0F5A07580FF22D1
:040699007F327E002E
:0B069D00EF1FAC0670011E4C70F6222F
:02053C00AD0709
:10053E00E4FBEBC39408748094805012C294ED13C4
:10054E009294120699D294EDC313FD0B80E47F3280
:05055E007E0002069D75
:1005AE00E4FBEBC39408748094805014C294EDC3A2
:1005BE0013FDD2943094034305801206990B80E20A
:0205CE00AF0577
:0105D0002208
:10056300C202D2947F787E0012069DC2947F207EC1
:100573000312069DD2947F647E0012069DA294927C
:0605830002120699A2021B
:01058900224F
:10065200E4FEEEC3940874809480500FC297EF13A7
:0B06620092A3EFC313FFD2970E80E7B6
:01066D00226A
:10068500C29300C29700D29300120652AF0512061C
:0406950052C2932298
:10036C00E4FDC29300C29700D29300120652E4FF40
:10037C00EFC39408748094805011C297EDC313FDA1
:10038C0030A303430580D2970F80E5C29300C29738
:0C039C0000D29700C2A300D2A300AF055E
:0103A8002232
:030000000201A357
:0C01A300787FE4F6D8FD7581450201EA82
:10031700BC000BBE0029EF8DF084FFADF022E4CCCA
:10032700F875F008EF2FFFEE33FEEC33FCEE9DEC93
:10033700984005FCEE9DFE0FD5F0E9E4CEFD22EDD9
:10034700F8F5F0EE8420D21CFEADF075F008EF2F23
:10035700FFED33FD4007985006D5F0F222C398FD14
:050367000FD5F0EA22B1
:1001AF000205D1E493A3F8E493A34003F68001F290
:1001BF0008DFF48029E493A3F85407240CC8C33351
:1001CF00C4540F4420C8834004F456800146F6DF20
:1001DF00E4800B0102040810204080900457E47E55
:1001EF00019360BCA3FF543F30E509541FFEE49315
:1001FF00A360010ECF54C025E060A840B8E493A3DC
:10020F00FAE493A3F8E493A3C8C582C8CAC583CA06
:10021F00F0A3C8C582C8CAC583CADFE9DEE780BEBE
:010489000072
:00000001FF
